{
  "_format": "hh-sol-artifact-1",
  "contractName": "DustBoyNFT",
  "sourceName": "contracts/DustBoyNFT.sol",
  "abi": [
    {
      "inputs": [],
      "stateMutability": "nonpayable",
      "type": "constructor"
    },
    {
      "anonymous": false,
      "inputs": [
        {
          "indexed": true,
          "internalType": "address",
          "name": "owner",
          "type": "address"
        },
        {
          "indexed": true,
          "internalType": "address",
          "name": "approved",
          "type": "address"
        },
        {
          "indexed": true,
          "internalType": "uint256",
          "name": "tokenId",
          "type": "uint256"
        }
      ],
      "name": "Approval",
      "type": "event"
    },
    {
      "anonymous": false,
      "inputs": [
        {
          "indexed": true,
          "internalType": "address",
          "name": "owner",
          "type": "address"
        },
        {
          "indexed": true,
          "internalType": "address",
          "name": "operator",
          "type": "address"
        },
        {
          "indexed": false,
          "internalType": "bool",
          "name": "approved",
          "type": "bool"
        }
      ],
      "name": "ApprovalForAll",
      "type": "event"
    },
    {
      "anonymous": false,
      "inputs": [
        {
          "indexed": true,
          "internalType": "address",
          "name": "previousOwner",
          "type": "address"
        },
        {
          "indexed": true,
          "internalType": "address",
          "name": "newOwner",
          "type": "address"
        }
      ],
      "name": "OwnershipTransferred",
      "type": "event"
    },
    {
      "anonymous": false,
      "inputs": [
        {
          "indexed": true,
          "internalType": "address",
          "name": "from",
          "type": "address"
        },
        {
          "indexed": true,
          "internalType": "address",
          "name": "to",
          "type": "address"
        },
        {
          "indexed": true,
          "internalType": "uint256",
          "name": "tokenId",
          "type": "uint256"
        }
      ],
      "name": "Transfer",
      "type": "event"
    },
    {
      "inputs": [],
      "name": "MAX_SUPPLY",
      "outputs": [
        {
          "internalType": "uint256",
          "name": "",
          "type": "uint256"
        }
      ],
      "stateMutability": "view",
      "type": "function"
    },
    {
      "inputs": [
        {
          "internalType": "address",
          "name": "to",
          "type": "address"
        },
        {
          "internalType": "uint256",
          "name": "tokenId",
          "type": "uint256"
        }
      ],
      "name": "approve",
      "outputs": [],
      "stateMutability": "nonpayable",
      "type": "function"
    },
    {
      "inputs": [
        {
          "internalType": "address",
          "name": "owner",
          "type": "address"
        }
      ],
      "name": "balanceOf",
      "outputs": [
        {
          "internalType": "uint256",
          "name": "",
          "type": "uint256"
        }
      ],
      "stateMutability": "view",
      "type": "function"
    },
    {
      "inputs": [
        {
          "internalType": "uint256",
          "name": "tokenId",
          "type": "uint256"
        }
      ],
      "name": "getApproved",
      "outputs": [
        {
          "internalType": "address",
          "name": "",
          "type": "address"
        }
      ],
      "stateMutability": "view",
      "type": "function"
    },
    {
      "inputs": [
        {
          "internalType": "address",
          "name": "owner",
          "type": "address"
        },
        {
          "internalType": "address",
          "name": "operator",
          "type": "address"
        }
      ],
      "name": "isApprovedForAll",
      "outputs": [
        {
          "internalType": "bool",
          "name": "",
          "type": "bool"
        }
      ],
      "stateMutability": "view",
      "type": "function"
    },
    {
      "inputs": [
        {
          "internalType": "uint256",
          "name": "id",
          "type": "uint256"
        }
      ],
      "name": "mint",
      "outputs": [],
      "stateMutability": "payable",
      "type": "function"
    },
    {
      "inputs": [],
      "name": "name",
      "outputs": [
        {
          "internalType": "string",
          "name": "",
          "type": "string"
        }
      ],
      "stateMutability": "view",
      "type": "function"
    },
    {
      "inputs": [],
      "name": "owner",
      "outputs": [
        {
          "internalType": "address",
          "name": "",
          "type": "address"
        }
      ],
      "stateMutability": "view",
      "type": "function"
    },
    {
      "inputs": [
        {
          "internalType": "uint256",
          "name": "tokenId",
          "type": "uint256"
        }
      ],
      "name": "ownerOf",
      "outputs": [
        {
          "internalType": "address",
          "name": "",
          "type": "address"
        }
      ],
      "stateMutability": "view",
      "type": "function"
    },
    {
      "inputs": [],
      "name": "renounceOwnership",
      "outputs": [],
      "stateMutability": "nonpayable",
      "type": "function"
    },
    {
      "inputs": [
        {
          "internalType": "uint256",
          "name": "",
          "type": "uint256"
        },
        {
          "internalType": "uint256",
          "name": "salePrice",
          "type": "uint256"
        }
      ],
      "name": "royaltyInfo",
      "outputs": [
        {
          "internalType": "address",
          "name": "receiver",
          "type": "address"
        },
        {
          "internalType": "uint256",
          "name": "royaltyAmount",
          "type": "uint256"
        }
      ],
      "stateMutability": "view",
      "type": "function"
    },
    {
      "inputs": [
        {
          "internalType": "address",
          "name": "from",
          "type": "address"
        },
        {
          "internalType": "address",
          "name": "to",
          "type": "address"
        },
        {
          "internalType": "uint256",
          "name": "tokenId",
          "type": "uint256"
        }
      ],
      "name": "safeTransferFrom",
      "outputs": [],
      "stateMutability": "nonpayable",
      "type": "function"
    },
    {
      "inputs": [
        {
          "internalType": "address",
          "name": "from",
          "type": "address"
        },
        {
          "internalType": "address",
          "name": "to",
          "type": "address"
        },
        {
          "internalType": "uint256",
          "name": "tokenId",
          "type": "uint256"
        },
        {
          "internalType": "bytes",
          "name": "data",
          "type": "bytes"
        }
      ],
      "name": "safeTransferFrom",
      "outputs": [],
      "stateMutability": "nonpayable",
      "type": "function"
    },
    {
      "inputs": [],
      "name": "saleIsActive",
      "outputs": [
        {
          "internalType": "bool",
          "name": "",
          "type": "bool"
        }
      ],
      "stateMutability": "view",
      "type": "function"
    },
    {
      "inputs": [
        {
          "internalType": "uint256",
          "name": "",
          "type": "uint256"
        }
      ],
      "name": "sensors",
      "outputs": [
        {
          "internalType": "uint256",
          "name": "field1",
          "type": "uint256"
        },
        {
          "internalType": "uint256",
          "name": "field2",
          "type": "uint256"
        },
        {
          "internalType": "uint256",
          "name": "field3",
          "type": "uint256"
        },
        {
          "internalType": "uint256",
          "name": "field4",
          "type": "uint256"
        }
      ],
      "stateMutability": "view",
      "type": "function"
    },
    {
      "inputs": [
        {
          "internalType": "address",
          "name": "operator",
          "type": "address"
        },
        {
          "internalType": "bool",
          "name": "approved",
          "type": "bool"
        }
      ],
      "name": "setApprovalForAll",
      "outputs": [],
      "stateMutability": "nonpayable",
      "type": "function"
    },
    {
      "inputs": [
        {
          "internalType": "string",
          "name": "customBaseURI_",
          "type": "string"
        }
      ],
      "name": "setBaseURI",
      "outputs": [],
      "stateMutability": "nonpayable",
      "type": "function"
    },
    {
      "inputs": [
        {
          "internalType": "bool",
          "name": "saleIsActive_",
          "type": "bool"
        }
      ],
      "name": "setSaleIsActive",
      "outputs": [],
      "stateMutability": "nonpayable",
      "type": "function"
    },
    {
      "inputs": [
        {
          "internalType": "uint256",
          "name": "_tokenId",
          "type": "uint256"
        },
        {
          "components": [
            {
              "internalType": "uint256",
              "name": "field1",
              "type": "uint256"
            },
            {
              "internalType": "uint256",
              "name": "field2",
              "type": "uint256"
            },
            {
              "internalType": "uint256",
              "name": "field3",
              "type": "uint256"
            },
            {
              "internalType": "uint256",
              "name": "field4",
              "type": "uint256"
            }
          ],
          "internalType": "struct DustBoyNFT.Sensor",
          "name": "s",
          "type": "tuple"
        }
      ],
      "name": "setSensor",
      "outputs": [],
      "stateMutability": "nonpayable",
      "type": "function"
    },
    {
      "inputs": [
        {
          "internalType": "bytes4",
          "name": "interfaceId",
          "type": "bytes4"
        }
      ],
      "name": "supportsInterface",
      "outputs": [
        {
          "internalType": "bool",
          "name": "",
          "type": "bool"
        }
      ],
      "stateMutability": "view",
      "type": "function"
    },
    {
      "inputs": [],
      "name": "symbol",
      "outputs": [
        {
          "internalType": "string",
          "name": "",
          "type": "string"
        }
      ],
      "stateMutability": "view",
      "type": "function"
    },
    {
      "inputs": [
        {
          "internalType": "uint256",
          "name": "index",
          "type": "uint256"
        }
      ],
      "name": "tokenByIndex",
      "outputs": [
        {
          "internalType": "uint256",
          "name": "",
          "type": "uint256"
        }
      ],
      "stateMutability": "view",
      "type": "function"
    },
    {
      "inputs": [
        {
          "internalType": "address",
          "name": "owner",
          "type": "address"
        },
        {
          "internalType": "uint256",
          "name": "index",
          "type": "uint256"
        }
      ],
      "name": "tokenOfOwnerByIndex",
      "outputs": [
        {
          "internalType": "uint256",
          "name": "",
          "type": "uint256"
        }
      ],
      "stateMutability": "view",
      "type": "function"
    },
    {
      "inputs": [
        {
          "internalType": "uint256",
          "name": "tokenId",
          "type": "uint256"
        }
      ],
      "name": "tokenURI",
      "outputs": [
        {
          "internalType": "string",
          "name": "",
          "type": "string"
        }
      ],
      "stateMutability": "view",
      "type": "function"
    },
    {
      "inputs": [],
      "name": "totalSupply",
      "outputs": [
        {
          "internalType": "uint256",
          "name": "",
          "type": "uint256"
        }
      ],
      "stateMutability": "view",
      "type": "function"
    },
    {
      "inputs": [
        {
          "internalType": "address",
          "name": "from",
          "type": "address"
        },
        {
          "internalType": "address",
          "name": "to",
          "type": "address"
        },
        {
          "internalType": "uint256",
          "name": "tokenId",
          "type": "uint256"
        }
      ],
      "name": "transferFrom",
      "outputs": [],
      "stateMutability": "nonpayable",
      "type": "function"
    },
    {
      "inputs": [
        {
          "internalType": "address",
          "name": "newOwner",
          "type": "address"
        }
      ],
      "name": "transferOwnership",
      "outputs": [],
      "stateMutability": "nonpayable",
      "type": "function"
    },
    {
      "inputs": [
        {
          "internalType": "uint256",
          "name": "value",
          "type": "uint256"
        }
      ],
      "name": "withdraw",
      "outputs": [],
      "stateMutability": "nonpayable",
      "type": "function"
    },
    {
      "inputs": [],
      "name": "withdraw",
      "outputs": [],
      "stateMutability": "nonpayable",
      "type": "function"
    }
  ],
  "bytecode": "0x60806040526001600d60006101000a81548160ff0219169083151502179055503480156200002c57600080fd5b506040518060400160405280600a81526020017f44757374426f794e4654000000000000000000000000000000000000000000008152506040518060400160405280600581526020017f44424e46540000000000000000000000000000000000000000000000000000008152508160009081620000aa919062000460565b508060019081620000bc919062000460565b5050506001600a81905550620000e7620000db6200011860201b60201c565b6200012060201b60201c565b6040518060600160405280602b815260200162004664602b9139600e908162000111919062000460565b5062000547565b600033905090565b6000600b60009054906101000a900473ffffffffffffffffffffffffffffffffffffffff16905081600b60006101000a81548173ffffffffffffffffffffffffffffffffffffffff021916908373ffffffffffffffffffffffffffffffffffffffff1602179055508173ffffffffffffffffffffffffffffffffffffffff168173ffffffffffffffffffffffffffffffffffffffff167f8be0079c531659141344cd1fd0a4f28419497f9722a3daafe3b4186f6b6457e060405160405180910390a35050565b600081519050919050565b7f4e487b7100000000000000000000000000000000000000000000000000000000600052604160045260246000fd5b7f4e487b7100000000000000000000000000000000000000000000000000000000600052602260045260246000fd5b600060028204905060018216806200026857607f821691505b6020821081036200027e576200027d62000220565b5b50919050565b60008190508160005260206000209050919050565b60006020601f8301049050919050565b600082821b905092915050565b600060088302620002e87fffffffffffffffffffffffffffffffffffffffffffffffffffffffffffffffff82620002a9565b620002f48683620002a9565b95508019841693508086168417925050509392505050565b6000819050919050565b6000819050919050565b6000620003416200033b62000335846200030c565b62000316565b6200030c565b9050919050565b6000819050919050565b6200035d8362000320565b620003756200036c8262000348565b848454620002b6565b825550505050565b600090565b6200038c6200037d565b6200039981848462000352565b505050565b5b81811015620003c157620003b560008262000382565b6001810190506200039f565b5050565b601f8211156200041057620003da8162000284565b620003e58462000299565b81016020851015620003f5578190505b6200040d620004048562000299565b8301826200039e565b50505b505050565b600082821c905092915050565b6000620004356000198460080262000415565b1980831691505092915050565b600062000450838362000422565b9150826002028217905092915050565b6200046b82620001e6565b67ffffffffffffffff811115620004875762000486620001f1565b5b6200049382546200024f565b620004a0828285620003c5565b600060209050601f831160018114620004d85760008415620004c3578287015190505b620004cf858262000442565b8655506200053f565b601f198416620004e88662000284565b60005b828110156200051257848901518255600182019150602085019450602081019050620004eb565b868310156200053257848901516200052e601f89168262000422565b8355505b6001600288020188555050505b505050505050565b61410d80620005576000396000f3fe6080604052600436106101c25760003560e01c80634f6ccce7116100f757806395d89b4111610095578063c87b56dd11610064578063c87b56dd14610645578063e985e9c514610682578063eb8d2444146106bf578063f2fde38b146106ea576101c2565b806395d89b41146105ac578063a0712d68146105d7578063a22cb465146105f3578063b88d4fde1461061c576101c2565b806370a08231116100d157806370a0823114610504578063715018a61461054157806379f7e448146105585780638da5cb5b14610581576101c2565b80634f6ccce71461046157806355f804b31461049e5780636352211e146104c7576101c2565b80632a55205a1161016457806332cb6b0c1161013e57806332cb6b0c146103b65780633ccfd60b146103e1578063412f2e82146103f857806342842e0e14610438576101c2565b80632a55205a146103125780632e1a7d4d146103505780632f745c5914610379576101c2565b8063081812fc116101a0578063081812fc14610258578063095ea7b31461029557806318160ddd146102be57806323b872dd146102e9576101c2565b806301ffc9a7146101c757806302c889891461020457806306fdde031461022d575b600080fd5b3480156101d357600080fd5b506101ee60048036038101906101e99190612886565b610713565b6040516101fb91906128ce565b60405180910390f35b34801561021057600080fd5b5061022b60048036038101906102269190612915565b61078d565b005b34801561023957600080fd5b506102426107b2565b60405161024f91906129d2565b60405180910390f35b34801561026457600080fd5b5061027f600480360381019061027a9190612a2a565b610844565b60405161028c9190612a98565b60405180910390f35b3480156102a157600080fd5b506102bc60048036038101906102b79190612adf565b61088a565b005b3480156102ca57600080fd5b506102d36109a1565b6040516102e09190612b2e565b60405180910390f35b3480156102f557600080fd5b50610310600480360381019061030b9190612b49565b6109ae565b005b34801561031e57600080fd5b5061033960048036038101906103349190612b9c565b610a0e565b604051610347929190612bdc565b60405180910390f35b34801561035c57600080fd5b5061037760048036038101906103729190612a2a565b610a38565b005b34801561038557600080fd5b506103a0600480360381019061039b9190612adf565b610ada565b6040516103ad9190612b2e565b60405180910390f35b3480156103c257600080fd5b506103cb610b7f565b6040516103d89190612b2e565b60405180910390f35b3480156103ed57600080fd5b506103f6610b85565b005b34801561040457600080fd5b5061041f600480360381019061041a9190612a2a565b610bae565b60405161042f9493929190612c05565b60405180910390f35b34801561044457600080fd5b5061045f600480360381019061045a9190612b49565b610bde565b005b34801561046d57600080fd5b5061048860048036038101906104839190612a2a565b610bfe565b6040516104959190612b2e565b60405180910390f35b3480156104aa57600080fd5b506104c560048036038101906104c09190612d7f565b610c6f565b005b3480156104d357600080fd5b506104ee60048036038101906104e99190612a2a565b610c8a565b6040516104fb9190612a98565b60405180910390f35b34801561051057600080fd5b5061052b60048036038101906105269190612dc8565b610d10565b6040516105389190612b2e565b60405180910390f35b34801561054d57600080fd5b50610556610dc7565b005b34801561056457600080fd5b5061057f600480360381019061057a9190612e19565b610ddb565b005b34801561058d57600080fd5b50610596610e7c565b6040516105a39190612a98565b60405180910390f35b3480156105b857600080fd5b506105c1610ea6565b6040516105ce91906129d2565b60405180910390f35b6105f160048036038101906105ec9190612a2a565b610f38565b005b3480156105ff57600080fd5b5061061a60048036038101906106159190612e59565b610fef565b005b34801561062857600080fd5b50610643600480360381019061063e9190612f3a565b611005565b005b34801561065157600080fd5b5061066c60048036038101906106679190612a2a565b611067565b60405161067991906129d2565b60405180910390f35b34801561068e57600080fd5b506106a960048036038101906106a49190612fbd565b6110cf565b6040516106b691906128ce565b60405180910390f35b3480156106cb57600080fd5b506106d4611163565b6040516106e191906128ce565b60405180910390f35b3480156106f657600080fd5b50610711600480360381019061070c9190612dc8565b611176565b005b60007f2a55205a000000000000000000000000000000000000000000000000000000007bffffffffffffffffffffffffffffffffffffffffffffffffffffffff1916827bffffffffffffffffffffffffffffffffffffffffffffffffffffffff191614806107865750610785826111f9565b5b9050919050565b610795611273565b80600d60006101000a81548160ff02191690831515021790555050565b6060600080546107c19061302c565b80601f01602080910402602001604051908101604052809291908181526020018280546107ed9061302c565b801561083a5780601f1061080f5761010080835404028352916020019161083a565b820191906000526020600020905b81548152906001019060200180831161081d57829003601f168201915b5050505050905090565b600061084f826112f1565b6004600083815260200190815260200160002060009054906101000a900473ffffffffffffffffffffffffffffffffffffffff169050919050565b600061089582610c8a565b90508073ffffffffffffffffffffffffffffffffffffffff168373ffffffffffffffffffffffffffffffffffffffff1603610905576040517f08c379a00000000000000000000000000000000000000000000000000000000081526004016108fc906130cf565b60405180910390fd5b8073ffffffffffffffffffffffffffffffffffffffff1661092461133c565b73ffffffffffffffffffffffffffffffffffffffff16148061095357506109528161094d61133c565b6110cf565b5b610992576040517f08c379a000000000000000000000000000000000000000000000000000000000815260040161098990613161565b60405180910390fd5b61099c8383611344565b505050565b6000600880549050905090565b6109bf6109b961133c565b826113fd565b6109fe576040517f08c379a00000000000000000000000000000000000000000000000000000000081526004016109f5906131f3565b60405180910390fd5b610a09838383611492565b505050565b600080306127106103e885610a239190613242565b610a2d91906132b3565b915091509250929050565b610a40611273565b600047905060008111610a88576040517f08c379a0000000000000000000000000000000000000000000000000000000008152600401610a7f90613330565b60405180910390fd5b610a90610e7c565b73ffffffffffffffffffffffffffffffffffffffff166108fc839081150290604051600060405180830381858888f19350505050158015610ad5573d6000803e3d6000fd5b505050565b6000610ae583610d10565b8210610b26576040517f08c379a0000000000000000000000000000000000000000000000000000000008152600401610b1d906133c2565b60405180910390fd5b600660008473ffffffffffffffffffffffffffffffffffffffff1673ffffffffffffffffffffffffffffffffffffffff168152602001908152602001600020600083815260200190815260200160002054905092915050565b614e2081565b610b8d61178b565b6000479050610ba3610b9d610e7c565b826117da565b50610bac6118ce565b565b600c6020528060005260406000206000915090508060000154908060010154908060020154908060030154905084565b610bf983838360405180602001604052806000815250611005565b505050565b6000610c086109a1565b8210610c49576040517f08c379a0000000000000000000000000000000000000000000000000000000008152600401610c4090613454565b60405180910390fd5b60088281548110610c5d57610c5c613474565b5b90600052602060002001549050919050565b610c77611273565b80600e9081610c86919061364f565b5050565b600080610c96836118d8565b9050600073ffffffffffffffffffffffffffffffffffffffff168173ffffffffffffffffffffffffffffffffffffffff1603610d07576040517f08c379a0000000000000000000000000000000000000000000000000000000008152600401610cfe9061376d565b60405180910390fd5b80915050919050565b60008073ffffffffffffffffffffffffffffffffffffffff168273ffffffffffffffffffffffffffffffffffffffff1603610d80576040517f08c379a0000000000000000000000000000000000000000000000000000000008152600401610d77906137ff565b60405180910390fd5b600360008373ffffffffffffffffffffffffffffffffffffffff1673ffffffffffffffffffffffffffffffffffffffff168152602001908152602001600020549050919050565b610dcf611273565b610dd96000611915565b565b3373ffffffffffffffffffffffffffffffffffffffff16610dfb83610c8a565b73ffffffffffffffffffffffffffffffffffffffff1614610e1b57600080fd5b8060000135600c6000848152602001908152602001600020600001819055508060200135600c6000848152602001908152602001600020600101819055508060400135600c6000848152602001908152602001600020600101819055505050565b6000600b60009054906101000a900473ffffffffffffffffffffffffffffffffffffffff16905090565b606060018054610eb59061302c565b80601f0160208091040260200160405190810160405280929190818152602001828054610ee19061302c565b8015610f2e5780601f10610f0357610100808354040283529160200191610f2e565b820191906000526020600020905b815481529060010190602001808311610f1157829003601f168201915b5050505050905090565b610f4061178b565b600d60009054906101000a900460ff16610f8f576040517f08c379a0000000000000000000000000000000000000000000000000000000008152600401610f869061386b565b60405180910390fd5b614e20610f9a6109a1565b10610fda576040517f08c379a0000000000000000000000000000000000000000000000000000000008152600401610fd1906138d7565b60405180910390fd5b610fe433826119db565b610fec6118ce565b50565b611001610ffa61133c565b8383611bf8565b5050565b61101661101061133c565b836113fd565b611055576040517f08c379a000000000000000000000000000000000000000000000000000000000815260040161104c906131f3565b60405180910390fd5b61106184848484611d64565b50505050565b6060611072826112f1565b600061107c611dc0565b9050600081511161109c57604051806020016040528060008152506110c7565b806110a684611e52565b6040516020016110b7929190613933565b6040516020818303038152906040525b915050919050565b6000600560008473ffffffffffffffffffffffffffffffffffffffff1673ffffffffffffffffffffffffffffffffffffffff16815260200190815260200160002060008373ffffffffffffffffffffffffffffffffffffffff1673ffffffffffffffffffffffffffffffffffffffff16815260200190815260200160002060009054906101000a900460ff16905092915050565b600d60009054906101000a900460ff1681565b61117e611273565b600073ffffffffffffffffffffffffffffffffffffffff168173ffffffffffffffffffffffffffffffffffffffff16036111ed576040517f08c379a00000000000000000000000000000000000000000000000000000000081526004016111e4906139c9565b60405180910390fd5b6111f681611915565b50565b60007f780e9d63000000000000000000000000000000000000000000000000000000007bffffffffffffffffffffffffffffffffffffffffffffffffffffffff1916827bffffffffffffffffffffffffffffffffffffffffffffffffffffffff1916148061126c575061126b82611f20565b5b9050919050565b61127b61133c565b73ffffffffffffffffffffffffffffffffffffffff16611299610e7c565b73ffffffffffffffffffffffffffffffffffffffff16146112ef576040517f08c379a00000000000000000000000000000000000000000000000000000000081526004016112e690613a35565b60405180910390fd5b565b6112fa81612002565b611339576040517f08c379a00000000000000000000000000000000000000000000000000000000081526004016113309061376d565b60405180910390fd5b50565b600033905090565b816004600083815260200190815260200160002060006101000a81548173ffffffffffffffffffffffffffffffffffffffff021916908373ffffffffffffffffffffffffffffffffffffffff160217905550808273ffffffffffffffffffffffffffffffffffffffff166113b783610c8a565b73ffffffffffffffffffffffffffffffffffffffff167f8c5be1e5ebec7d5bd14f71427d1e84f3dd0314c0f7b2291e5b200ac8c7c3b92560405160405180910390a45050565b60008061140983610c8a565b90508073ffffffffffffffffffffffffffffffffffffffff168473ffffffffffffffffffffffffffffffffffffffff16148061144b575061144a81856110cf565b5b8061148957508373ffffffffffffffffffffffffffffffffffffffff1661147184610844565b73ffffffffffffffffffffffffffffffffffffffff16145b91505092915050565b8273ffffffffffffffffffffffffffffffffffffffff166114b282610c8a565b73ffffffffffffffffffffffffffffffffffffffff1614611508576040517f08c379a00000000000000000000000000000000000000000000000000000000081526004016114ff90613ac7565b60405180910390fd5b600073ffffffffffffffffffffffffffffffffffffffff168273ffffffffffffffffffffffffffffffffffffffff1603611577576040517f08c379a000000000000000000000000000000000000000000000000000000000815260040161156e90613b59565b60405180910390fd5b6115848383836001612043565b8273ffffffffffffffffffffffffffffffffffffffff166115a482610c8a565b73ffffffffffffffffffffffffffffffffffffffff16146115fa576040517f08c379a00000000000000000000000000000000000000000000000000000000081526004016115f190613ac7565b60405180910390fd5b6004600082815260200190815260200160002060006101000a81549073ffffffffffffffffffffffffffffffffffffffff02191690556001600360008573ffffffffffffffffffffffffffffffffffffffff1673ffffffffffffffffffffffffffffffffffffffff168152602001908152602001600020600082825403925050819055506001600360008473ffffffffffffffffffffffffffffffffffffffff1673ffffffffffffffffffffffffffffffffffffffff16815260200190815260200160002060008282540192505081905550816002600083815260200190815260200160002060006101000a81548173ffffffffffffffffffffffffffffffffffffffff021916908373ffffffffffffffffffffffffffffffffffffffff160217905550808273ffffffffffffffffffffffffffffffffffffffff168473ffffffffffffffffffffffffffffffffffffffff167fddf252ad1be2c89b69c2b068fc378daa952ba7f163c4a11628f55a4df523b3ef60405160405180910390a461178683838360016121a1565b505050565b6002600a54036117d0576040517f08c379a00000000000000000000000000000000000000000000000000000000081526004016117c790613bc5565b60405180910390fd5b6002600a81905550565b8047101561181d576040517f08c379a000000000000000000000000000000000000000000000000000000000815260040161181490613c31565b60405180910390fd5b60008273ffffffffffffffffffffffffffffffffffffffff168260405161184390613c82565b60006040518083038185875af1925050503d8060008114611880576040519150601f19603f3d011682016040523d82523d6000602084013e611885565b606091505b50509050806118c9576040517f08c379a00000000000000000000000000000000000000000000000000000000081526004016118c090613d09565b60405180910390fd5b505050565b6001600a81905550565b60006002600083815260200190815260200160002060009054906101000a900473ffffffffffffffffffffffffffffffffffffffff169050919050565b6000600b60009054906101000a900473ffffffffffffffffffffffffffffffffffffffff16905081600b60006101000a81548173ffffffffffffffffffffffffffffffffffffffff021916908373ffffffffffffffffffffffffffffffffffffffff1602179055508173ffffffffffffffffffffffffffffffffffffffff168173ffffffffffffffffffffffffffffffffffffffff167f8be0079c531659141344cd1fd0a4f28419497f9722a3daafe3b4186f6b6457e060405160405180910390a35050565b600073ffffffffffffffffffffffffffffffffffffffff168273ffffffffffffffffffffffffffffffffffffffff1603611a4a576040517f08c379a0000000000000000000000000000000000000000000000000000000008152600401611a4190613d75565b60405180910390fd5b611a5381612002565b15611a93576040517f08c379a0000000000000000000000000000000000000000000000000000000008152600401611a8a90613de1565b60405180910390fd5b611aa1600083836001612043565b611aaa81612002565b15611aea576040517f08c379a0000000000000000000000000000000000000000000000000000000008152600401611ae190613de1565b60405180910390fd5b6001600360008473ffffffffffffffffffffffffffffffffffffffff1673ffffffffffffffffffffffffffffffffffffffff16815260200190815260200160002060008282540192505081905550816002600083815260200190815260200160002060006101000a81548173ffffffffffffffffffffffffffffffffffffffff021916908373ffffffffffffffffffffffffffffffffffffffff160217905550808273ffffffffffffffffffffffffffffffffffffffff16600073ffffffffffffffffffffffffffffffffffffffff167fddf252ad1be2c89b69c2b068fc378daa952ba7f163c4a11628f55a4df523b3ef60405160405180910390a4611bf46000838360016121a1565b5050565b8173ffffffffffffffffffffffffffffffffffffffff168373ffffffffffffffffffffffffffffffffffffffff1603611c66576040517f08c379a0000000000000000000000000000000000000000000000000000000008152600401611c5d90613e4d565b60405180910390fd5b80600560008573ffffffffffffffffffffffffffffffffffffffff1673ffffffffffffffffffffffffffffffffffffffff16815260200190815260200160002060008473ffffffffffffffffffffffffffffffffffffffff1673ffffffffffffffffffffffffffffffffffffffff16815260200190815260200160002060006101000a81548160ff0219169083151502179055508173ffffffffffffffffffffffffffffffffffffffff168373ffffffffffffffffffffffffffffffffffffffff167f17307eab39ab6107e8899845ad3d59bd9653f200f220920489ca2b5937696c3183604051611d5791906128ce565b60405180910390a3505050565b611d6f848484611492565b611d7b848484846121a7565b611dba576040517f08c379a0000000000000000000000000000000000000000000000000000000008152600401611db190613edf565b60405180910390fd5b50505050565b6060600e8054611dcf9061302c565b80601f0160208091040260200160405190810160405280929190818152602001828054611dfb9061302c565b8015611e485780601f10611e1d57610100808354040283529160200191611e48565b820191906000526020600020905b815481529060010190602001808311611e2b57829003601f168201915b5050505050905090565b606060006001611e618461232e565b01905060008167ffffffffffffffff811115611e8057611e7f612c54565b5b6040519080825280601f01601f191660200182016040528015611eb25781602001600182028036833780820191505090505b509050600082602001820190505b600115611f15578080600190039150507f3031323334353637383961626364656600000000000000000000000000000000600a86061a8153600a8581611f0957611f08613284565b5b04945060008503611ec0575b819350505050919050565b60007f80ac58cd000000000000000000000000000000000000000000000000000000007bffffffffffffffffffffffffffffffffffffffffffffffffffffffff1916827bffffffffffffffffffffffffffffffffffffffffffffffffffffffff19161480611feb57507f5b5e139f000000000000000000000000000000000000000000000000000000007bffffffffffffffffffffffffffffffffffffffffffffffffffffffff1916827bffffffffffffffffffffffffffffffffffffffffffffffffffffffff1916145b80611ffb5750611ffa82612481565b5b9050919050565b60008073ffffffffffffffffffffffffffffffffffffffff16612024836118d8565b73ffffffffffffffffffffffffffffffffffffffff1614159050919050565b61204f848484846124eb565b6001811115612093576040517f08c379a000000000000000000000000000000000000000000000000000000000815260040161208a90613f71565b60405180910390fd5b6000829050600073ffffffffffffffffffffffffffffffffffffffff168573ffffffffffffffffffffffffffffffffffffffff16036120da576120d5816124f1565b612119565b8373ffffffffffffffffffffffffffffffffffffffff168573ffffffffffffffffffffffffffffffffffffffff161461211857612117858261253a565b5b5b600073ffffffffffffffffffffffffffffffffffffffff168473ffffffffffffffffffffffffffffffffffffffff160361215b57612156816126a7565b61219a565b8473ffffffffffffffffffffffffffffffffffffffff168473ffffffffffffffffffffffffffffffffffffffff1614612199576121988482612778565b5b5b5050505050565b50505050565b60006121c88473ffffffffffffffffffffffffffffffffffffffff166127f7565b15612321578373ffffffffffffffffffffffffffffffffffffffff1663150b7a026121f161133c565b8786866040518563ffffffff1660e01b81526004016122139493929190613fe6565b6020604051808303816000875af192505050801561224f57506040513d601f19601f8201168201806040525081019061224c9190614047565b60015b6122d1573d806000811461227f576040519150601f19603f3d011682016040523d82523d6000602084013e612284565b606091505b5060008151036122c9576040517f08c379a00000000000000000000000000000000000000000000000000000000081526004016122c090613edf565b60405180910390fd5b805181602001fd5b63150b7a0260e01b7bffffffffffffffffffffffffffffffffffffffffffffffffffffffff1916817bffffffffffffffffffffffffffffffffffffffffffffffffffffffff191614915050612326565b600190505b949350505050565b600080600090507a184f03e93ff9f4daa797ed6e38ed64bf6a1f010000000000000000831061238c577a184f03e93ff9f4daa797ed6e38ed64bf6a1f010000000000000000838161238257612381613284565b5b0492506040810190505b6d04ee2d6d415b85acef810000000083106123c9576d04ee2d6d415b85acef810000000083816123bf576123be613284565b5b0492506020810190505b662386f26fc1000083106123f857662386f26fc1000083816123ee576123ed613284565b5b0492506010810190505b6305f5e1008310612421576305f5e100838161241757612416613284565b5b0492506008810190505b612710831061244657612710838161243c5761243b613284565b5b0492506004810190505b60648310612469576064838161245f5761245e613284565b5b0492506002810190505b600a8310612478576001810190505b80915050919050565b60007f01ffc9a7000000000000000000000000000000000000000000000000000000007bffffffffffffffffffffffffffffffffffffffffffffffffffffffff1916827bffffffffffffffffffffffffffffffffffffffffffffffffffffffff1916149050919050565b50505050565b6008805490506009600083815260200190815260200160002081905550600881908060018154018082558091505060019003906000526020600020016000909190919091505550565b6000600161254784610d10565b6125519190614074565b9050600060076000848152602001908152602001600020549050818114612636576000600660008673ffffffffffffffffffffffffffffffffffffffff1673ffffffffffffffffffffffffffffffffffffffff168152602001908152602001600020600084815260200190815260200160002054905080600660008773ffffffffffffffffffffffffffffffffffffffff1673ffffffffffffffffffffffffffffffffffffffff168152602001908152602001600020600084815260200190815260200160002081905550816007600083815260200190815260200160002081905550505b6007600084815260200190815260200160002060009055600660008573ffffffffffffffffffffffffffffffffffffffff1673ffffffffffffffffffffffffffffffffffffffff16815260200190815260200160002060008381526020019081526020016000206000905550505050565b600060016008805490506126bb9190614074565b90506000600960008481526020019081526020016000205490506000600883815481106126eb576126ea613474565b5b90600052602060002001549050806008838154811061270d5761270c613474565b5b90600052602060002001819055508160096000838152602001908152602001600020819055506009600085815260200190815260200160002060009055600880548061275c5761275b6140a8565b5b6001900381819060005260206000200160009055905550505050565b600061278383610d10565b905081600660008573ffffffffffffffffffffffffffffffffffffffff1673ffffffffffffffffffffffffffffffffffffffff168152602001908152602001600020600083815260200190815260200160002081905550806007600084815260200190815260200160002081905550505050565b6000808273ffffffffffffffffffffffffffffffffffffffff163b119050919050565b6000604051905090565b600080fd5b600080fd5b60007fffffffff0000000000000000000000000000000000000000000000000000000082169050919050565b6128638161282e565b811461286e57600080fd5b50565b6000813590506128808161285a565b92915050565b60006020828403121561289c5761289b612824565b5b60006128aa84828501612871565b91505092915050565b60008115159050919050565b6128c8816128b3565b82525050565b60006020820190506128e360008301846128bf565b92915050565b6128f2816128b3565b81146128fd57600080fd5b50565b60008135905061290f816128e9565b92915050565b60006020828403121561292b5761292a612824565b5b600061293984828501612900565b91505092915050565b600081519050919050565b600082825260208201905092915050565b60005b8381101561297c578082015181840152602081019050612961565b60008484015250505050565b6000601f19601f8301169050919050565b60006129a482612942565b6129ae818561294d565b93506129be81856020860161295e565b6129c781612988565b840191505092915050565b600060208201905081810360008301526129ec8184612999565b905092915050565b6000819050919050565b612a07816129f4565b8114612a1257600080fd5b50565b600081359050612a24816129fe565b92915050565b600060208284031215612a4057612a3f612824565b5b6000612a4e84828501612a15565b91505092915050565b600073ffffffffffffffffffffffffffffffffffffffff82169050919050565b6000612a8282612a57565b9050919050565b612a9281612a77565b82525050565b6000602082019050612aad6000830184612a89565b92915050565b612abc81612a77565b8114612ac757600080fd5b50565b600081359050612ad981612ab3565b92915050565b60008060408385031215612af657612af5612824565b5b6000612b0485828601612aca565b9250506020612b1585828601612a15565b9150509250929050565b612b28816129f4565b82525050565b6000602082019050612b436000830184612b1f565b92915050565b600080600060608486031215612b6257612b61612824565b5b6000612b7086828701612aca565b9350506020612b8186828701612aca565b9250506040612b9286828701612a15565b9150509250925092565b60008060408385031215612bb357612bb2612824565b5b6000612bc185828601612a15565b9250506020612bd285828601612a15565b9150509250929050565b6000604082019050612bf16000830185612a89565b612bfe6020830184612b1f565b9392505050565b6000608082019050612c1a6000830187612b1f565b612c276020830186612b1f565b612c346040830185612b1f565b612c416060830184612b1f565b95945050505050565b600080fd5b600080fd5b7f4e487b7100000000000000000000000000000000000000000000000000000000600052604160045260246000fd5b612c8c82612988565b810181811067ffffffffffffffff82111715612cab57612caa612c54565b5b80604052505050565b6000612cbe61281a565b9050612cca8282612c83565b919050565b600067ffffffffffffffff821115612cea57612ce9612c54565b5b612cf382612988565b9050602081019050919050565b82818337600083830152505050565b6000612d22612d1d84612ccf565b612cb4565b905082815260208101848484011115612d3e57612d3d612c4f565b5b612d49848285612d00565b509392505050565b600082601f830112612d6657612d65612c4a565b5b8135612d76848260208601612d0f565b91505092915050565b600060208284031215612d9557612d94612824565b5b600082013567ffffffffffffffff811115612db357612db2612829565b5b612dbf84828501612d51565b91505092915050565b600060208284031215612dde57612ddd612824565b5b6000612dec84828501612aca565b91505092915050565b600080fd5b600060808284031215612e1057612e0f612df5565b5b81905092915050565b60008060a08385031215612e3057612e2f612824565b5b6000612e3e85828601612a15565b9250506020612e4f85828601612dfa565b9150509250929050565b60008060408385031215612e7057612e6f612824565b5b6000612e7e85828601612aca565b9250506020612e8f85828601612900565b9150509250929050565b600067ffffffffffffffff821115612eb457612eb3612c54565b5b612ebd82612988565b9050602081019050919050565b6000612edd612ed884612e99565b612cb4565b905082815260208101848484011115612ef957612ef8612c4f565b5b612f04848285612d00565b509392505050565b600082601f830112612f2157612f20612c4a565b5b8135612f31848260208601612eca565b91505092915050565b60008060008060808587031215612f5457612f53612824565b5b6000612f6287828801612aca565b9450506020612f7387828801612aca565b9350506040612f8487828801612a15565b925050606085013567ffffffffffffffff811115612fa557612fa4612829565b5b612fb187828801612f0c565b91505092959194509250565b60008060408385031215612fd457612fd3612824565b5b6000612fe285828601612aca565b9250506020612ff385828601612aca565b9150509250929050565b7f4e487b7100000000000000000000000000000000000000000000000000000000600052602260045260246000fd5b6000600282049050600182168061304457607f821691505b60208210810361305757613056612ffd565b5b50919050565b7f4552433732313a20617070726f76616c20746f2063757272656e74206f776e6560008201527f7200000000000000000000000000000000000000000000000000000000000000602082015250565b60006130b960218361294d565b91506130c48261305d565b604082019050919050565b600060208201905081810360008301526130e8816130ac565b9050919050565b7f4552433732313a20617070726f76652063616c6c6572206973206e6f7420746f60008201527f6b656e206f776e6572206f7220617070726f76656420666f7220616c6c000000602082015250565b600061314b603d8361294d565b9150613156826130ef565b604082019050919050565b6000602082019050818103600083015261317a8161313e565b9050919050565b7f4552433732313a2063616c6c6572206973206e6f7420746f6b656e206f776e6560008201527f72206f7220617070726f76656400000000000000000000000000000000000000602082015250565b60006131dd602d8361294d565b91506131e882613181565b604082019050919050565b6000602082019050818103600083015261320c816131d0565b9050919050565b7f4e487b7100000000000000000000000000000000000000000000000000000000600052601160045260246000fd5b600061324d826129f4565b9150613258836129f4565b9250828202613266816129f4565b9150828204841483151761327d5761327c613213565b5b5092915050565b7f4e487b7100000000000000000000000000000000000000000000000000000000600052601260045260246000fd5b60006132be826129f4565b91506132c9836129f4565b9250826132d9576132d8613284565b5b828204905092915050565b7f4e6f206574686572206c65667420746f20776974686472617700000000000000600082015250565b600061331a60198361294d565b9150613325826132e4565b602082019050919050565b600060208201905081810360008301526133498161330d565b9050919050565b7f455243373231456e756d657261626c653a206f776e657220696e646578206f7560008201527f74206f6620626f756e6473000000000000000000000000000000000000000000602082015250565b60006133ac602b8361294d565b91506133b782613350565b604082019050919050565b600060208201905081810360008301526133db8161339f565b9050919050565b7f455243373231456e756d657261626c653a20676c6f62616c20696e646578206f60008201527f7574206f6620626f756e64730000000000000000000000000000000000000000602082015250565b600061343e602c8361294d565b9150613449826133e2565b604082019050919050565b6000602082019050818103600083015261346d81613431565b9050919050565b7f4e487b7100000000000000000000000000000000000000000000000000000000600052603260045260246000fd5b60008190508160005260206000209050919050565b60006020601f8301049050919050565b600082821b905092915050565b6000600883026135057fffffffffffffffffffffffffffffffffffffffffffffffffffffffffffffffff826134c8565b61350f86836134c8565b95508019841693508086168417925050509392505050565b6000819050919050565b600061354c613547613542846129f4565b613527565b6129f4565b9050919050565b6000819050919050565b61356683613531565b61357a61357282613553565b8484546134d5565b825550505050565b600090565b61358f613582565b61359a81848461355d565b505050565b5b818110156135be576135b3600082613587565b6001810190506135a0565b5050565b601f821115613603576135d4816134a3565b6135dd846134b8565b810160208510156135ec578190505b6136006135f8856134b8565b83018261359f565b50505b505050565b600082821c905092915050565b600061362660001984600802613608565b1980831691505092915050565b600061363f8383613615565b9150826002028217905092915050565b61365882612942565b67ffffffffffffffff81111561367157613670612c54565b5b61367b825461302c565b6136868282856135c2565b600060209050601f8311600181146136b957600084156136a7578287015190505b6136b18582613633565b865550613719565b601f1984166136c7866134a3565b60005b828110156136ef578489015182556001820191506020850194506020810190506136ca565b8683101561370c5784890151613708601f891682613615565b8355505b6001600288020188555050505b505050505050565b7f4552433732313a20696e76616c696420746f6b656e2049440000000000000000600082015250565b600061375760188361294d565b915061376282613721565b602082019050919050565b600060208201905081810360008301526137868161374a565b9050919050565b7f4552433732313a2061646472657373207a65726f206973206e6f74206120766160008201527f6c6964206f776e65720000000000000000000000000000000000000000000000602082015250565b60006137e960298361294d565b91506137f48261378d565b604082019050919050565b60006020820190508181036000830152613818816137dc565b9050919050565b7f53616c65206e6f74206163746976650000000000000000000000000000000000600082015250565b6000613855600f8361294d565b91506138608261381f565b602082019050919050565b6000602082019050818103600083015261388481613848565b9050919050565b7f45786365656473206d617820737570706c790000000000000000000000000000600082015250565b60006138c160128361294d565b91506138cc8261388b565b602082019050919050565b600060208201905081810360008301526138f0816138b4565b9050919050565b600081905092915050565b600061390d82612942565b61391781856138f7565b935061392781856020860161295e565b80840191505092915050565b600061393f8285613902565b915061394b8284613902565b91508190509392505050565b7f4f776e61626c653a206e6577206f776e657220697320746865207a65726f206160008201527f6464726573730000000000000000000000000000000000000000000000000000602082015250565b60006139b360268361294d565b91506139be82613957565b604082019050919050565b600060208201905081810360008301526139e2816139a6565b9050919050565b7f4f776e61626c653a2063616c6c6572206973206e6f7420746865206f776e6572600082015250565b6000613a1f60208361294d565b9150613a2a826139e9565b602082019050919050565b60006020820190508181036000830152613a4e81613a12565b9050919050565b7f4552433732313a207472616e736665722066726f6d20696e636f72726563742060008201527f6f776e6572000000000000000000000000000000000000000000000000000000602082015250565b6000613ab160258361294d565b9150613abc82613a55565b604082019050919050565b60006020820190508181036000830152613ae081613aa4565b9050919050565b7f4552433732313a207472616e7366657220746f20746865207a65726f2061646460008201527f7265737300000000000000000000000000000000000000000000000000000000602082015250565b6000613b4360248361294d565b9150613b4e82613ae7565b604082019050919050565b60006020820190508181036000830152613b7281613b36565b9050919050565b7f5265656e7472616e637947756172643a207265656e7472616e742063616c6c00600082015250565b6000613baf601f8361294d565b9150613bba82613b79565b602082019050919050565b60006020820190508181036000830152613bde81613ba2565b9050919050565b7f416464726573733a20696e73756666696369656e742062616c616e6365000000600082015250565b6000613c1b601d8361294d565b9150613c2682613be5565b602082019050919050565b60006020820190508181036000830152613c4a81613c0e565b9050919050565b600081905092915050565b50565b6000613c6c600083613c51565b9150613c7782613c5c565b600082019050919050565b6000613c8d82613c5f565b9150819050919050565b7f416464726573733a20756e61626c6520746f2073656e642076616c75652c207260008201527f6563697069656e74206d61792068617665207265766572746564000000000000602082015250565b6000613cf3603a8361294d565b9150613cfe82613c97565b604082019050919050565b60006020820190508181036000830152613d2281613ce6565b9050919050565b7f4552433732313a206d696e7420746f20746865207a65726f2061646472657373600082015250565b6000613d5f60208361294d565b9150613d6a82613d29565b602082019050919050565b60006020820190508181036000830152613d8e81613d52565b9050919050565b7f4552433732313a20746f6b656e20616c7265616479206d696e74656400000000600082015250565b6000613dcb601c8361294d565b9150613dd682613d95565b602082019050919050565b60006020820190508181036000830152613dfa81613dbe565b9050919050565b7f4552433732313a20617070726f766520746f2063616c6c657200000000000000600082015250565b6000613e3760198361294d565b9150613e4282613e01565b602082019050919050565b60006020820190508181036000830152613e6681613e2a565b9050919050565b7f4552433732313a207472616e7366657220746f206e6f6e20455243373231526560008201527f63656976657220696d706c656d656e7465720000000000000000000000000000602082015250565b6000613ec960328361294d565b9150613ed482613e6d565b604082019050919050565b60006020820190508181036000830152613ef881613ebc565b9050919050565b7f455243373231456e756d657261626c653a20636f6e736563757469766520747260008201527f616e7366657273206e6f7420737570706f727465640000000000000000000000602082015250565b6000613f5b60358361294d565b9150613f6682613eff565b604082019050919050565b60006020820190508181036000830152613f8a81613f4e565b9050919050565b600081519050919050565b600082825260208201905092915050565b6000613fb882613f91565b613fc28185613f9c565b9350613fd281856020860161295e565b613fdb81612988565b840191505092915050565b6000608082019050613ffb6000830187612a89565b6140086020830186612a89565b6140156040830185612b1f565b81810360608301526140278184613fad565b905095945050505050565b6000815190506140418161285a565b92915050565b60006020828403121561405d5761405c612824565b5b600061406b84828501614032565b91505092915050565b600061407f826129f4565b915061408a836129f4565b92508282039050818111156140a2576140a1613213565b5b92915050565b7f4e487b7100000000000000000000000000000000000000000000000000000000600052603160045260246000fdfea26469706673582212200c5f2c9feb155f8fce8a4a030c2e06f07d7ed34dd558f213db67b9da2427566c64736f6c6343000811003368747470733a2f2f64757374626f792d6d657461646174612e6c617269732e776f726b6572732e6465762f",
  "linkReferences": {},
  "deployedLinkReferences": {}
}